{
  "_format": "hh-sol-artifact-1",
  "contractName": "ERC20Staking",
  "sourceName": "contracts/ERC20StakingSmartContract.sol",
  "abi": [
    {
      "inputs": [
        {
          "internalType": "contract IERC20",
          "name": "_stakingToken",
          "type": "address"
        }
      ],
      "stateMutability": "nonpayable",
      "type": "constructor"
    },
    {
      "anonymous": false,
      "inputs": [
        {
          "indexed": true,
          "internalType": "address",
          "name": "user",
          "type": "address"
        },
        {
          "indexed": false,
          "internalType": "uint256",
          "name": "preferredDuration",
          "type": "uint256"
        }
      ],
      "name": "Registered",
      "type": "event"
    },
    {
      "anonymous": false,
      "inputs": [
        {
          "indexed": true,
          "internalType": "address",
          "name": "user",
          "type": "address"
        },
        {
          "indexed": false,
          "internalType": "uint256",
          "name": "amount",
          "type": "uint256"
        },
        {
          "indexed": false,
          "internalType": "uint256",
          "name": "duration",
          "type": "uint256"
        }
      ],
      "name": "Staked",
      "type": "event"
    },
    {
      "anonymous": false,
      "inputs": [
        {
          "indexed": true,
          "internalType": "address",
          "name": "user",
          "type": "address"
        },
        {
          "indexed": false,
          "internalType": "uint256",
          "name": "stakedAmount",
          "type": "uint256"
        },
        {
          "indexed": false,
          "internalType": "uint256",
          "name": "rewards",
          "type": "uint256"
        }
      ],
      "name": "Withdrawn",
      "type": "event"
    },
    {
      "inputs": [
        {
          "internalType": "address",
          "name": "_staker",
          "type": "address"
        }
      ],
      "name": "calculateRewards",
      "outputs": [
        {
          "internalType": "uint256",
          "name": "",
          "type": "uint256"
        }
      ],
      "stateMutability": "view",
      "type": "function"
    },
    {
      "inputs": [],
      "name": "earlyWithdrawalFeePercent",
      "outputs": [
        {
          "internalType": "uint256",
          "name": "",
          "type": "uint256"
        }
      ],
      "stateMutability": "view",
      "type": "function"
    },
    {
      "inputs": [],
      "name": "getContractBalance",
      "outputs": [
        {
          "internalType": "uint256",
          "name": "",
          "type": "uint256"
        }
      ],
      "stateMutability": "view",
      "type": "function"
    },
    {
      "inputs": [
        {
          "internalType": "address",
          "name": "_staker",
          "type": "address"
        }
      ],
      "name": "getStakerBalance",
      "outputs": [
        {
          "internalType": "uint256",
          "name": "",
          "type": "uint256"
        },
        {
          "internalType": "uint256",
          "name": "",
          "type": "uint256"
        }
      ],
      "stateMutability": "view",
      "type": "function"
    },
    {
      "inputs": [],
      "name": "owner",
      "outputs": [
        {
          "internalType": "address",
          "name": "",
          "type": "address"
        }
      ],
      "stateMutability": "view",
      "type": "function"
    },
    {
      "inputs": [
        {
          "internalType": "uint256",
          "name": "_preferredDuration",
          "type": "uint256"
        }
      ],
      "name": "register",
      "outputs": [],
      "stateMutability": "nonpayable",
      "type": "function"
    },
    {
      "inputs": [],
      "name": "rewardRate30Days",
      "outputs": [
        {
          "internalType": "uint256",
          "name": "",
          "type": "uint256"
        }
      ],
      "stateMutability": "view",
      "type": "function"
    },
    {
      "inputs": [],
      "name": "rewardRate60Days",
      "outputs": [
        {
          "internalType": "uint256",
          "name": "",
          "type": "uint256"
        }
      ],
      "stateMutability": "view",
      "type": "function"
    },
    {
      "inputs": [],
      "name": "rewardRate90Days",
      "outputs": [
        {
          "internalType": "uint256",
          "name": "",
          "type": "uint256"
        }
      ],
      "stateMutability": "view",
      "type": "function"
    },
    {
      "inputs": [
        {
          "internalType": "uint256",
          "name": "_amount",
          "type": "uint256"
        }
      ],
      "name": "stake",
      "outputs": [],
      "stateMutability": "nonpayable",
      "type": "function"
    },
    {
      "inputs": [
        {
          "internalType": "uint256",
          "name": "",
          "type": "uint256"
        }
      ],
      "name": "stakerList",
      "outputs": [
        {
          "internalType": "address",
          "name": "",
          "type": "address"
        }
      ],
      "stateMutability": "view",
      "type": "function"
    },
    {
      "inputs": [
        {
          "internalType": "address",
          "name": "",
          "type": "address"
        }
      ],
      "name": "stakers",
      "outputs": [
        {
          "internalType": "uint256",
          "name": "stakedAmount",
          "type": "uint256"
        },
        {
          "internalType": "uint256",
          "name": "stakingTimestamp",
          "type": "uint256"
        },
        {
          "internalType": "uint256",
          "name": "stakingDuration",
          "type": "uint256"
        },
        {
          "internalType": "uint256",
          "name": "rewards",
          "type": "uint256"
        },
        {
          "internalType": "bool",
          "name": "hasStaked",
          "type": "bool"
        },
        {
          "internalType": "bool",
          "name": "isRewardWithdrawn",
          "type": "bool"
        },
        {
          "internalType": "bool",
          "name": "isStakeWithdrawn",
          "type": "bool"
        },
        {
          "internalType": "bool",
          "name": "isRegistered",
          "type": "bool"
        }
      ],
      "stateMutability": "view",
      "type": "function"
    },
    {
      "inputs": [],
      "name": "stakingToken",
      "outputs": [
        {
          "internalType": "contract IERC20",
          "name": "",
          "type": "address"
        }
      ],
      "stateMutability": "view",
      "type": "function"
    },
    {
      "inputs": [],
      "name": "totalStaked",
      "outputs": [
        {
          "internalType": "uint256",
          "name": "",
          "type": "uint256"
        }
      ],
      "stateMutability": "view",
      "type": "function"
    },
    {
      "inputs": [
        {
          "internalType": "uint256",
          "name": "_amount",
          "type": "uint256"
        },
        {
          "internalType": "uint256",
          "name": "_duration",
          "type": "uint256"
        }
      ],
      "name": "viewPotentialRewards",
      "outputs": [
        {
          "internalType": "uint256",
          "name": "",
          "type": "uint256"
        }
      ],
      "stateMutability": "view",
      "type": "function"
    },
    {
      "inputs": [],
      "name": "withdraw",
      "outputs": [],
      "stateMutability": "nonpayable",
      "type": "function"
    }
  ],
  "bytecode": "0x60806040523480156200001157600080fd5b5060405162001d0338038062001d03833981810160405281019062000037919062000155565b336000806101000a81548173ffffffffffffffffffffffffffffffffffffffff021916908373ffffffffffffffffffffffffffffffffffffffff16021790555080600160006101000a81548173ffffffffffffffffffffffffffffffffffffffff021916908373ffffffffffffffffffffffffffffffffffffffff16021790555060036002819055506005600381905550600f6004819055505062000187565b600080fd5b600073ffffffffffffffffffffffffffffffffffffffff82169050919050565b60006200010982620000dc565b9050919050565b60006200011d82620000fc565b9050919050565b6200012f8162000110565b81146200013b57600080fd5b50565b6000815190506200014f8162000124565b92915050565b6000602082840312156200016e576200016d620000d7565b5b60006200017e848285016200013e565b91505092915050565b611b6c80620001976000396000f3fe608060405234801561001057600080fd5b50600436106101005760003560e01c80636f9fb98a116100975780639168ae72116100665780639168ae72146102a2578063a694fc3a146102d9578063c7de364d146102f5578063f207564e1461031357610100565b80636f9fb98a1461022a57806372f702f314610248578063817b1cd2146102665780638da5cb5b1461028457610100565b8063348e50c6116100d3578063348e50c6146101905780633ccfd60b146101c057806364ab8675146101ca5780636adb4ed3146101fa57610100565b8063095b1d9014610105578063253fe18a146101235780632640d9db14610141578063273223d114610172575b600080fd5b61010d61032f565b60405161011a9190611275565b60405180910390f35b61012b610335565b6040516101389190611275565b60405180910390f35b61015b600480360381019061015691906112f3565b61033a565b604051610169929190611320565b60405180910390f35b61017a610444565b6040516101879190611275565b60405180910390f35b6101aa60048036038101906101a59190611375565b61044a565b6040516101b791906113b1565b60405180910390f35b6101c8610489565b005b6101e460048036038101906101df91906112f3565b6107a7565b6040516101f19190611275565b60405180910390f35b610214600480360381019061020f91906113cc565b610920565b6040516102219190611275565b60405180910390f35b6102326109b6565b60405161023f9190611275565b60405180910390f35b610250610a59565b60405161025d919061146b565b60405180910390f35b61026e610a7f565b60405161027b9190611275565b60405180910390f35b61028c610a85565b60405161029991906113b1565b60405180910390f35b6102bc60048036038101906102b791906112f3565b610aa9565b6040516102d09897969594939291906114a1565b60405180910390f35b6102f360048036038101906102ee9190611375565b610b25565b005b6102fd610ffd565b60405161030a9190611275565b60405180910390f35b61032d60048036038101906103289190611375565b611003565b005b60025481565b600f81565b6000806000600660008573ffffffffffffffffffffffffffffffffffffffff1673ffffffffffffffffffffffffffffffffffffffff16815260200190815260200160002060405180610100016040529081600082015481526020016001820154815260200160028201548152602001600382015481526020016004820160009054906101000a900460ff161515151581526020016004820160019054906101000a900460ff161515151581526020016004820160029054906101000a900460ff161515151581526020016004820160039054906101000a900460ff16151515158152505090506000816000015190506000610434866107a7565b9050818194509450505050915091565b60045481565b6007818154811061045a57600080fd5b906000526020600020016000915054906101000a900473ffffffffffffffffffffffffffffffffffffffff1681565b6000600660003373ffffffffffffffffffffffffffffffffffffffff1673ffffffffffffffffffffffffffffffffffffffff16815260200190815260200160002090508060040160039054906101000a900460ff1661051d576040517f08c379a00000000000000000000000000000000000000000000000000000000081526004016105149061157c565b60405180910390fd5b8060040160009054906101000a900460ff1661056e576040517f08c379a0000000000000000000000000000000000000000000000000000000008152600401610565906115e8565b60405180910390fd5b8060040160029054906101000a900460ff16156105c0576040517f08c379a00000000000000000000000000000000000000000000000000000000081526004016105b79061167a565b60405180910390fd5b60006105cb336107a7565b9050600082600001549050826002015483600101546105ea91906116c9565b42101561061e5760006064600f8461060291906116fd565b61060c919061176e565b9050808361061a919061179f565b9250505b60018360040160026101000a81548160ff02191690831515021790555060008360040160006101000a81548160ff0219169083151502179055506000828261066691906116c9565b905060008460000181905550600160009054906101000a900473ffffffffffffffffffffffffffffffffffffffff1673ffffffffffffffffffffffffffffffffffffffff1663a9059cbb33836040518363ffffffff1660e01b81526004016106cf9291906117d3565b6020604051808303816000875af11580156106ee573d6000803e3d6000fd5b505050506040513d601f19601f820116820180604052508101906107129190611828565b610751576040517f08c379a0000000000000000000000000000000000000000000000000000000008152600401610748906118a1565b60405180910390fd5b3373ffffffffffffffffffffffffffffffffffffffff167f92ccf450a286a957af52509bc1c9939d1a6a481783e142e41e2499f0bb66ebc68385604051610799929190611320565b60405180910390a250505050565b600080600660008473ffffffffffffffffffffffffffffffffffffffff1673ffffffffffffffffffffffffffffffffffffffff16815260200190815260200160002060405180610100016040529081600082015481526020016001820154815260200160028201548152602001600382015481526020016004820160009054906101000a900460ff161515151581526020016004820160019054906101000a900460ff161515151581526020016004820160029054906101000a900460ff161515151581526020016004820160039054906101000a900460ff1615151515815250509050600062278d008260400151036108a55760025490506108e2565b624f1a008260400151036108bd5760035490506108e1565b6276a7008260400151036108d55760045490506108e0565b60009250505061091b565b5b5b600063bbf81e0083604001518385600001516108fe91906116fd565b61090891906116fd565b610912919061176e565b90508093505050505b919050565b600080620151808361093291906116fd565b9050600062278d00820361094a57600254905061097f565b624f1a00820361095e57600354905061097e565b6276a700820361097257600454905061097d565b6000925050506109b0565b5b5b600063bbf81e0083838861099391906116fd565b61099d91906116fd565b6109a7919061176e565b90508093505050505b92915050565b6000600160009054906101000a900473ffffffffffffffffffffffffffffffffffffffff1673ffffffffffffffffffffffffffffffffffffffff166370a08231306040518263ffffffff1660e01b8152600401610a1391906113b1565b602060405180830381865afa158015610a30573d6000803e3d6000fd5b505050506040513d601f19601f82011682018060405250810190610a5491906118d6565b905090565b600160009054906101000a900473ffffffffffffffffffffffffffffffffffffffff1681565b60055481565b60008054906101000a900473ffffffffffffffffffffffffffffffffffffffff1681565b60066020528060005260406000206000915090508060000154908060010154908060020154908060030154908060040160009054906101000a900460ff16908060040160019054906101000a900460ff16908060040160029054906101000a900460ff16908060040160039054906101000a900460ff16905088565b600660003373ffffffffffffffffffffffffffffffffffffffff1673ffffffffffffffffffffffffffffffffffffffff16815260200190815260200160002060040160039054906101000a900460ff16610bb4576040517f08c379a0000000000000000000000000000000000000000000000000000000008152600401610bab9061157c565b60405180910390fd5b60008111610bf7576040517f08c379a0000000000000000000000000000000000000000000000000000000008152600401610bee90611975565b60405180910390fd5b600660003373ffffffffffffffffffffffffffffffffffffffff1673ffffffffffffffffffffffffffffffffffffffff16815260200190815260200160002060040160009054906101000a900460ff1615610c87576040517f08c379a0000000000000000000000000000000000000000000000000000000008152600401610c7e906119e1565b60405180910390fd5b600160009054906101000a900473ffffffffffffffffffffffffffffffffffffffff1673ffffffffffffffffffffffffffffffffffffffff166323b872dd3330846040518463ffffffff1660e01b8152600401610ce693929190611a01565b6020604051808303816000875af1158015610d05573d6000803e3d6000fd5b505050506040513d601f19601f82011682018060405250810190610d299190611828565b610d68576040517f08c379a0000000000000000000000000000000000000000000000000000000008152600401610d5f906118a1565b60405180910390fd5b80600660003373ffffffffffffffffffffffffffffffffffffffff1673ffffffffffffffffffffffffffffffffffffffff1681526020019081526020016000206000018190555042600660003373ffffffffffffffffffffffffffffffffffffffff1673ffffffffffffffffffffffffffffffffffffffff168152602001908152602001600020600101819055506000600660003373ffffffffffffffffffffffffffffffffffffffff1673ffffffffffffffffffffffffffffffffffffffff168152602001908152602001600020600301819055506001600660003373ffffffffffffffffffffffffffffffffffffffff1673ffffffffffffffffffffffffffffffffffffffff16815260200190815260200160002060040160006101000a81548160ff0219169083151502179055506000600660003373ffffffffffffffffffffffffffffffffffffffff1673ffffffffffffffffffffffffffffffffffffffff16815260200190815260200160002060040160026101000a81548160ff0219169083151502179055506000600660003373ffffffffffffffffffffffffffffffffffffffff1673ffffffffffffffffffffffffffffffffffffffff16815260200190815260200160002060040160016101000a81548160ff0219169083151502179055508060056000828254610f6191906116c9565b925050819055503373ffffffffffffffffffffffffffffffffffffffff167f1449c6dd7851abc30abf37f57715f492010519147cc2652fbc38202c18a6ee9082600660003373ffffffffffffffffffffffffffffffffffffffff1673ffffffffffffffffffffffffffffffffffffffff16815260200190815260200160002060020154604051610ff2929190611320565b60405180910390a250565b60035481565b6000620151808261101491906116fd565b9050600660003373ffffffffffffffffffffffffffffffffffffffff1673ffffffffffffffffffffffffffffffffffffffff16815260200190815260200160002060040160039054906101000a900460ff16156110a6576040517f08c379a000000000000000000000000000000000000000000000000000000000815260040161109d90611a84565b60405180910390fd5b62278d008114806110b95750624f1a0081145b806110c657506276a70081145b611105576040517f08c379a00000000000000000000000000000000000000000000000000000000081526004016110fc90611b16565b60405180910390fd5b80600660003373ffffffffffffffffffffffffffffffffffffffff1673ffffffffffffffffffffffffffffffffffffffff168152602001908152602001600020600201819055506001600660003373ffffffffffffffffffffffffffffffffffffffff1673ffffffffffffffffffffffffffffffffffffffff16815260200190815260200160002060040160036101000a81548160ff0219169083151502179055506007339080600181540180825580915050600190039060005260206000200160009091909190916101000a81548173ffffffffffffffffffffffffffffffffffffffff021916908373ffffffffffffffffffffffffffffffffffffffff1602179055503373ffffffffffffffffffffffffffffffffffffffff167f6f3bf3fa84e4763a43b3d23f9d79be242d6d5c834941ff4c1111b67469e1150c826040516112509190611275565b60405180910390a25050565b6000819050919050565b61126f8161125c565b82525050565b600060208201905061128a6000830184611266565b92915050565b600080fd5b600073ffffffffffffffffffffffffffffffffffffffff82169050919050565b60006112c082611295565b9050919050565b6112d0816112b5565b81146112db57600080fd5b50565b6000813590506112ed816112c7565b92915050565b60006020828403121561130957611308611290565b5b6000611317848285016112de565b91505092915050565b60006040820190506113356000830185611266565b6113426020830184611266565b9392505050565b6113528161125c565b811461135d57600080fd5b50565b60008135905061136f81611349565b92915050565b60006020828403121561138b5761138a611290565b5b600061139984828501611360565b91505092915050565b6113ab816112b5565b82525050565b60006020820190506113c660008301846113a2565b92915050565b600080604083850312156113e3576113e2611290565b5b60006113f185828601611360565b925050602061140285828601611360565b9150509250929050565b6000819050919050565b600061143161142c61142784611295565b61140c565b611295565b9050919050565b600061144382611416565b9050919050565b600061145582611438565b9050919050565b6114658161144a565b82525050565b6000602082019050611480600083018461145c565b92915050565b60008115159050919050565b61149b81611486565b82525050565b6000610100820190506114b7600083018b611266565b6114c4602083018a611266565b6114d16040830189611266565b6114de6060830188611266565b6114eb6080830187611492565b6114f860a0830186611492565b61150560c0830185611492565b61151260e0830184611492565b9998505050505050505050565b600082825260208201905092915050565b7f55736572206973206e6f7420726567697374657265642e000000000000000000600082015250565b600061156660178361151f565b915061157182611530565b602082019050919050565b6000602082019050818103600083015261159581611559565b9050919050565b7f4e6f20616374697665207374616b652e00000000000000000000000000000000600082015250565b60006115d260108361151f565b91506115dd8261159c565b602082019050919050565b60006020820190508181036000830152611601816115c5565b9050919050565b7f5374616b656420746f6b656e73206861766520616c7265616479206265656e2060008201527f77697468647261776e2e00000000000000000000000000000000000000000000602082015250565b6000611664602a8361151f565b915061166f82611608565b604082019050919050565b6000602082019050818103600083015261169381611657565b9050919050565b7f4e487b7100000000000000000000000000000000000000000000000000000000600052601160045260246000fd5b60006116d48261125c565b91506116df8361125c565b92508282019050808211156116f7576116f661169a565b5b92915050565b60006117088261125c565b91506117138361125c565b92508282026117218161125c565b915082820484148315176117385761173761169a565b5b5092915050565b7f4e487b7100000000000000000000000000000000000000000000000000000000600052601260045260246000fd5b60006117798261125c565b91506117848361125c565b9250826117945761179361173f565b5b828204905092915050565b60006117aa8261125c565b91506117b58361125c565b92508282039050818111156117cd576117cc61169a565b5b92915050565b60006040820190506117e860008301856113a2565b6117f56020830184611266565b9392505050565b61180581611486565b811461181057600080fd5b50565b600081519050611822816117fc565b92915050565b60006020828403121561183e5761183d611290565b5b600061184c84828501611813565b91505092915050565b7f546f6b656e207472616e73666572206661696c65642e00000000000000000000600082015250565b600061188b60168361151f565b915061189682611855565b602082019050919050565b600060208201905081810360008301526118ba8161187e565b9050919050565b6000815190506118d081611349565b92915050565b6000602082840312156118ec576118eb611290565b5b60006118fa848285016118c1565b91505092915050565b7f5374616b696e6720616d6f756e74206d7573742062652067726561746572207460008201527f68616e207a65726f2e0000000000000000000000000000000000000000000000602082015250565b600061195f60298361151f565b915061196a82611903565b604082019050919050565b6000602082019050818103600083015261198e81611952565b9050919050565b7f416c7265616479206861766520616e20616374697665207374616b652e000000600082015250565b60006119cb601d8361151f565b91506119d682611995565b602082019050919050565b600060208201905081810360008301526119fa816119be565b9050919050565b6000606082019050611a1660008301866113a2565b611a2360208301856113a2565b611a306040830184611266565b949350505050565b7f416c726561647920726567697374657265642e00000000000000000000000000600082015250565b6000611a6e60138361151f565b9150611a7982611a38565b602082019050919050565b60006020820190508181036000830152611a9d81611a61565b9050919050565b7f496e76616c6964207374616b696e67206475726174696f6e2e2043686f6f736560008201527f20333020646179732c20363020646179732c206f7220393020646179732e0000602082015250565b6000611b00603e8361151f565b9150611b0b82611aa4565b604082019050919050565b60006020820190508181036000830152611b2f81611af3565b905091905056fea264697066735822122097759c78698707ef9e1e12b52a806ad35a6fd313e6b52ffc4f8b449e85c8ff7264736f6c63430008180033",
  "linkReferences": {},
  "deployedLinkReferences": {}
}