{
  "_format": "hh-sol-artifact-1",
  "contractName": "EtherStaking",
  "sourceName": "contracts/EtherStakingSmartContract.sol",
  "abi": [
    {
      "inputs": [],
      "stateMutability": "payable",
      "type": "constructor"
    },
    {
      "anonymous": false,
      "inputs": [
        {
          "indexed": true,
          "internalType": "address",
          "name": "user",
          "type": "address"
        },
        {
          "indexed": false,
          "internalType": "uint256",
          "name": "preferredDuration",
          "type": "uint256"
        }
      ],
      "name": "Registered",
      "type": "event"
    },
    {
      "anonymous": false,
      "inputs": [
        {
          "indexed": true,
          "internalType": "address",
          "name": "user",
          "type": "address"
        },
        {
          "indexed": false,
          "internalType": "uint256",
          "name": "amount",
          "type": "uint256"
        },
        {
          "indexed": false,
          "internalType": "uint256",
          "name": "duration",
          "type": "uint256"
        }
      ],
      "name": "Staked",
      "type": "event"
    },
    {
      "anonymous": false,
      "inputs": [
        {
          "indexed": true,
          "internalType": "address",
          "name": "user",
          "type": "address"
        },
        {
          "indexed": false,
          "internalType": "uint256",
          "name": "stakedAmount",
          "type": "uint256"
        },
        {
          "indexed": false,
          "internalType": "uint256",
          "name": "rewards",
          "type": "uint256"
        }
      ],
      "name": "Withdrawn",
      "type": "event"
    },
    {
      "inputs": [
        {
          "internalType": "address",
          "name": "_staker",
          "type": "address"
        }
      ],
      "name": "calculateRewards",
      "outputs": [
        {
          "internalType": "uint256",
          "name": "",
          "type": "uint256"
        }
      ],
      "stateMutability": "view",
      "type": "function"
    },
    {
      "inputs": [],
      "name": "earlyWithdrawalFeePercent",
      "outputs": [
        {
          "internalType": "uint256",
          "name": "",
          "type": "uint256"
        }
      ],
      "stateMutability": "view",
      "type": "function"
    },
    {
      "inputs": [],
      "name": "getContractBalance",
      "outputs": [
        {
          "internalType": "uint256",
          "name": "",
          "type": "uint256"
        }
      ],
      "stateMutability": "view",
      "type": "function"
    },
    {
      "inputs": [
        {
          "internalType": "address",
          "name": "_staker",
          "type": "address"
        }
      ],
      "name": "getStakerBalance",
      "outputs": [
        {
          "internalType": "uint256",
          "name": "",
          "type": "uint256"
        },
        {
          "internalType": "uint256",
          "name": "",
          "type": "uint256"
        }
      ],
      "stateMutability": "view",
      "type": "function"
    },
    {
      "inputs": [],
      "name": "owner",
      "outputs": [
        {
          "internalType": "address",
          "name": "",
          "type": "address"
        }
      ],
      "stateMutability": "view",
      "type": "function"
    },
    {
      "inputs": [
        {
          "internalType": "uint256",
          "name": "_preferredDuration",
          "type": "uint256"
        }
      ],
      "name": "register",
      "outputs": [],
      "stateMutability": "nonpayable",
      "type": "function"
    },
    {
      "inputs": [],
      "name": "rewardRate30Days",
      "outputs": [
        {
          "internalType": "uint256",
          "name": "",
          "type": "uint256"
        }
      ],
      "stateMutability": "view",
      "type": "function"
    },
    {
      "inputs": [],
      "name": "rewardRate60Days",
      "outputs": [
        {
          "internalType": "uint256",
          "name": "",
          "type": "uint256"
        }
      ],
      "stateMutability": "view",
      "type": "function"
    },
    {
      "inputs": [],
      "name": "rewardRate90Days",
      "outputs": [
        {
          "internalType": "uint256",
          "name": "",
          "type": "uint256"
        }
      ],
      "stateMutability": "view",
      "type": "function"
    },
    {
      "inputs": [],
      "name": "stake",
      "outputs": [],
      "stateMutability": "payable",
      "type": "function"
    },
    {
      "inputs": [
        {
          "internalType": "uint256",
          "name": "",
          "type": "uint256"
        }
      ],
      "name": "stakerList",
      "outputs": [
        {
          "internalType": "address",
          "name": "",
          "type": "address"
        }
      ],
      "stateMutability": "view",
      "type": "function"
    },
    {
      "inputs": [
        {
          "internalType": "address",
          "name": "",
          "type": "address"
        }
      ],
      "name": "stakers",
      "outputs": [
        {
          "internalType": "uint256",
          "name": "stakedAmount",
          "type": "uint256"
        },
        {
          "internalType": "uint256",
          "name": "stakingTimestamp",
          "type": "uint256"
        },
        {
          "internalType": "uint256",
          "name": "stakingDuration",
          "type": "uint256"
        },
        {
          "internalType": "uint256",
          "name": "rewards",
          "type": "uint256"
        },
        {
          "internalType": "bool",
          "name": "hasStaked",
          "type": "bool"
        },
        {
          "internalType": "bool",
          "name": "isRewardWithdrawn",
          "type": "bool"
        },
        {
          "internalType": "bool",
          "name": "isStakeWithdrawn",
          "type": "bool"
        },
        {
          "internalType": "bool",
          "name": "isRegistered",
          "type": "bool"
        }
      ],
      "stateMutability": "view",
      "type": "function"
    },
    {
      "inputs": [],
      "name": "totalStaked",
      "outputs": [
        {
          "internalType": "uint256",
          "name": "",
          "type": "uint256"
        }
      ],
      "stateMutability": "view",
      "type": "function"
    },
    {
      "inputs": [
        {
          "internalType": "uint256",
          "name": "_amount",
          "type": "uint256"
        },
        {
          "internalType": "uint256",
          "name": "_duration",
          "type": "uint256"
        }
      ],
      "name": "viewPotentialRewards",
      "outputs": [
        {
          "internalType": "uint256",
          "name": "",
          "type": "uint256"
        }
      ],
      "stateMutability": "view",
      "type": "function"
    },
    {
      "inputs": [],
      "name": "withdraw",
      "outputs": [],
      "stateMutability": "nonpayable",
      "type": "function"
    }
  ],
  "bytecode": "0x6080604052336000806101000a81548173ffffffffffffffffffffffffffffffffffffffff021916908373ffffffffffffffffffffffffffffffffffffffff16021790555060036001819055506005600281905550600f6003819055506118998061006b6000396000f3fe6080604052600436106100e85760003560e01c806364ab86751161008a5780638da5cb5b116100595780638da5cb5b146102da5780639168ae7214610305578063c7de364d14610349578063f207564e14610374576100e8565b806364ab86751461020a5780636adb4ed3146102475780636f9fb98a14610284578063817b1cd2146102af576100e8565b8063273223d1116100c6578063273223d114610181578063348e50c6146101ac5780633a4b66f1146101e95780633ccfd60b146101f3576100e8565b8063095b1d90146100ed578063253fe18a146101185780632640d9db14610143575b600080fd5b3480156100f957600080fd5b5061010261039d565b60405161010f9190611117565b60405180910390f35b34801561012457600080fd5b5061012d6103a3565b60405161013a9190611117565b60405180910390f35b34801561014f57600080fd5b5061016a60048036038101906101659190611195565b6103a8565b6040516101789291906111c2565b60405180910390f35b34801561018d57600080fd5b506101966104b2565b6040516101a39190611117565b60405180910390f35b3480156101b857600080fd5b506101d360048036038101906101ce9190611217565b6104b8565b6040516101e09190611253565b60405180910390f35b6101f16104f7565b005b3480156101ff57600080fd5b506102086108ed565b005b34801561021657600080fd5b50610231600480360381019061022c9190611195565b610b73565b60405161023e9190611117565b60405180910390f35b34801561025357600080fd5b5061026e6004803603810190610269919061126e565b610cec565b60405161027b9190611117565b60405180910390f35b34801561029057600080fd5b50610299610d82565b6040516102a69190611117565b60405180910390f35b3480156102bb57600080fd5b506102c4610d8a565b6040516102d19190611117565b60405180910390f35b3480156102e657600080fd5b506102ef610d90565b6040516102fc9190611253565b60405180910390f35b34801561031157600080fd5b5061032c60048036038101906103279190611195565b610db4565b6040516103409897969594939291906112c9565b60405180910390f35b34801561035557600080fd5b5061035e610e30565b60405161036b9190611117565b60405180910390f35b34801561038057600080fd5b5061039b60048036038101906103969190611217565b610e36565b005b60015481565b600f81565b6000806000600560008573ffffffffffffffffffffffffffffffffffffffff1673ffffffffffffffffffffffffffffffffffffffff16815260200190815260200160002060405180610100016040529081600082015481526020016001820154815260200160028201548152602001600382015481526020016004820160009054906101000a900460ff161515151581526020016004820160019054906101000a900460ff161515151581526020016004820160029054906101000a900460ff161515151581526020016004820160039054906101000a900460ff161515151581525050905060008160000151905060006104a286610b73565b9050818194509450505050915091565b60035481565b600681815481106104c857600080fd5b906000526020600020016000915054906101000a900473ffffffffffffffffffffffffffffffffffffffff1681565b600560003373ffffffffffffffffffffffffffffffffffffffff1673ffffffffffffffffffffffffffffffffffffffff16815260200190815260200160002060040160039054906101000a900460ff16610586576040517f08c379a000000000000000000000000000000000000000000000000000000000815260040161057d906113a4565b60405180910390fd5b600034116105c9576040517f08c379a00000000000000000000000000000000000000000000000000000000081526004016105c090611436565b60405180910390fd5b600560003373ffffffffffffffffffffffffffffffffffffffff1673ffffffffffffffffffffffffffffffffffffffff16815260200190815260200160002060040160009054906101000a900460ff1615610659576040517f08c379a0000000000000000000000000000000000000000000000000000000008152600401610650906114a2565b60405180910390fd5b34600560003373ffffffffffffffffffffffffffffffffffffffff1673ffffffffffffffffffffffffffffffffffffffff1681526020019081526020016000206000018190555042600560003373ffffffffffffffffffffffffffffffffffffffff1673ffffffffffffffffffffffffffffffffffffffff168152602001908152602001600020600101819055506000600560003373ffffffffffffffffffffffffffffffffffffffff1673ffffffffffffffffffffffffffffffffffffffff168152602001908152602001600020600301819055506001600560003373ffffffffffffffffffffffffffffffffffffffff1673ffffffffffffffffffffffffffffffffffffffff16815260200190815260200160002060040160006101000a81548160ff0219169083151502179055506000600560003373ffffffffffffffffffffffffffffffffffffffff1673ffffffffffffffffffffffffffffffffffffffff16815260200190815260200160002060040160026101000a81548160ff0219169083151502179055506000600560003373ffffffffffffffffffffffffffffffffffffffff1673ffffffffffffffffffffffffffffffffffffffff16815260200190815260200160002060040160016101000a81548160ff021916908315150217905550346004600082825461085291906114f1565b925050819055503373ffffffffffffffffffffffffffffffffffffffff167f1449c6dd7851abc30abf37f57715f492010519147cc2652fbc38202c18a6ee9034600560003373ffffffffffffffffffffffffffffffffffffffff1673ffffffffffffffffffffffffffffffffffffffff168152602001908152602001600020600201546040516108e39291906111c2565b60405180910390a2565b6000600560003373ffffffffffffffffffffffffffffffffffffffff1673ffffffffffffffffffffffffffffffffffffffff16815260200190815260200160002090508060040160039054906101000a900460ff16610981576040517f08c379a0000000000000000000000000000000000000000000000000000000008152600401610978906113a4565b60405180910390fd5b8060040160009054906101000a900460ff166109d2576040517f08c379a00000000000000000000000000000000000000000000000000000000081526004016109c990611571565b60405180910390fd5b8060040160029054906101000a900460ff1615610a24576040517f08c379a0000000000000000000000000000000000000000000000000000000008152600401610a1b90611603565b60405180910390fd5b6000610a2f33610b73565b905060008260000154905082600201548360010154610a4e91906114f1565b421015610a825760006064600f84610a669190611623565b610a709190611694565b90508083610a7e91906116c5565b9250505b60018360040160026101000a81548160ff02191690831515021790555060008360040160006101000a81548160ff02191690831515021790555060008282610aca91906114f1565b9050600084600001819055503373ffffffffffffffffffffffffffffffffffffffff166108fc829081150290604051600060405180830381858888f19350505050158015610b1c573d6000803e3d6000fd5b503373ffffffffffffffffffffffffffffffffffffffff167f92ccf450a286a957af52509bc1c9939d1a6a481783e142e41e2499f0bb66ebc68385604051610b659291906111c2565b60405180910390a250505050565b600080600560008473ffffffffffffffffffffffffffffffffffffffff1673ffffffffffffffffffffffffffffffffffffffff16815260200190815260200160002060405180610100016040529081600082015481526020016001820154815260200160028201548152602001600382015481526020016004820160009054906101000a900460ff161515151581526020016004820160019054906101000a900460ff161515151581526020016004820160029054906101000a900460ff161515151581526020016004820160039054906101000a900460ff1615151515815250509050600062278d00826040015103610c71576001549050610cae565b624f1a00826040015103610c89576002549050610cad565b6276a700826040015103610ca1576003549050610cac565b600092505050610ce7565b5b5b600063bbf81e008360400151838560000151610cca9190611623565b610cd49190611623565b610cde9190611694565b90508093505050505b919050565b6000806201518083610cfe9190611623565b9050600062278d008203610d16576001549050610d4b565b624f1a008203610d2a576002549050610d4a565b6276a7008203610d3e576003549050610d49565b600092505050610d7c565b5b5b600063bbf81e00838388610d5f9190611623565b610d699190611623565b610d739190611694565b90508093505050505b92915050565b600047905090565b60045481565b60008054906101000a900473ffffffffffffffffffffffffffffffffffffffff1681565b60056020528060005260406000206000915090508060000154908060010154908060020154908060030154908060040160009054906101000a900460ff16908060040160019054906101000a900460ff16908060040160029054906101000a900460ff16908060040160039054906101000a900460ff16905088565b60025481565b600073ffffffffffffffffffffffffffffffffffffffff163373ffffffffffffffffffffffffffffffffffffffff1603610ea5576040517f08c379a0000000000000000000000000000000000000000000000000000000008152600401610e9c90611745565b60405180910390fd5b60006201518082610eb69190611623565b9050600560003373ffffffffffffffffffffffffffffffffffffffff1673ffffffffffffffffffffffffffffffffffffffff16815260200190815260200160002060040160039054906101000a900460ff1615610f48576040517f08c379a0000000000000000000000000000000000000000000000000000000008152600401610f3f906117b1565b60405180910390fd5b62278d00811480610f5b5750624f1a0081145b80610f6857506276a70081145b610fa7576040517f08c379a0000000000000000000000000000000000000000000000000000000008152600401610f9e90611843565b60405180910390fd5b80600560003373ffffffffffffffffffffffffffffffffffffffff1673ffffffffffffffffffffffffffffffffffffffff168152602001908152602001600020600201819055506001600560003373ffffffffffffffffffffffffffffffffffffffff1673ffffffffffffffffffffffffffffffffffffffff16815260200190815260200160002060040160036101000a81548160ff0219169083151502179055506006339080600181540180825580915050600190039060005260206000200160009091909190916101000a81548173ffffffffffffffffffffffffffffffffffffffff021916908373ffffffffffffffffffffffffffffffffffffffff1602179055503373ffffffffffffffffffffffffffffffffffffffff167f6f3bf3fa84e4763a43b3d23f9d79be242d6d5c834941ff4c1111b67469e1150c826040516110f29190611117565b60405180910390a25050565b6000819050919050565b611111816110fe565b82525050565b600060208201905061112c6000830184611108565b92915050565b600080fd5b600073ffffffffffffffffffffffffffffffffffffffff82169050919050565b600061116282611137565b9050919050565b61117281611157565b811461117d57600080fd5b50565b60008135905061118f81611169565b92915050565b6000602082840312156111ab576111aa611132565b5b60006111b984828501611180565b91505092915050565b60006040820190506111d76000830185611108565b6111e46020830184611108565b9392505050565b6111f4816110fe565b81146111ff57600080fd5b50565b600081359050611211816111eb565b92915050565b60006020828403121561122d5761122c611132565b5b600061123b84828501611202565b91505092915050565b61124d81611157565b82525050565b60006020820190506112686000830184611244565b92915050565b6000806040838503121561128557611284611132565b5b600061129385828601611202565b92505060206112a485828601611202565b9150509250929050565b60008115159050919050565b6112c3816112ae565b82525050565b6000610100820190506112df600083018b611108565b6112ec602083018a611108565b6112f96040830189611108565b6113066060830188611108565b61131360808301876112ba565b61132060a08301866112ba565b61132d60c08301856112ba565b61133a60e08301846112ba565b9998505050505050505050565b600082825260208201905092915050565b7f55736572206973206e6f7420726567697374657265642e000000000000000000600082015250565b600061138e601783611347565b915061139982611358565b602082019050919050565b600060208201905081810360008301526113bd81611381565b9050919050565b7f5374616b696e6720616d6f756e74206d7573742062652067726561746572207460008201527f68616e207a65726f2e0000000000000000000000000000000000000000000000602082015250565b6000611420602983611347565b915061142b826113c4565b604082019050919050565b6000602082019050818103600083015261144f81611413565b9050919050565b7f416c7265616479206861766520616e20616374697665207374616b652e000000600082015250565b600061148c601d83611347565b915061149782611456565b602082019050919050565b600060208201905081810360008301526114bb8161147f565b9050919050565b7f4e487b7100000000000000000000000000000000000000000000000000000000600052601160045260246000fd5b60006114fc826110fe565b9150611507836110fe565b925082820190508082111561151f5761151e6114c2565b5b92915050565b7f4e6f20616374697665207374616b652e00000000000000000000000000000000600082015250565b600061155b601083611347565b915061156682611525565b602082019050919050565b6000602082019050818103600083015261158a8161154e565b9050919050565b7f5374616b65642045746865722068617320616c7265616479206265656e20776960008201527f7468647261776e2e000000000000000000000000000000000000000000000000602082015250565b60006115ed602883611347565b91506115f882611591565b604082019050919050565b6000602082019050818103600083015261161c816115e0565b9050919050565b600061162e826110fe565b9150611639836110fe565b9250828202611647816110fe565b9150828204841483151761165e5761165d6114c2565b5b5092915050565b7f4e487b7100000000000000000000000000000000000000000000000000000000600052601260045260246000fd5b600061169f826110fe565b91506116aa836110fe565b9250826116ba576116b9611665565b5b828204905092915050565b60006116d0826110fe565b91506116db836110fe565b92508282039050818111156116f3576116f26114c2565b5b92915050565b7f416464726573732063616e6e6f74206265207a65726f2e000000000000000000600082015250565b600061172f601783611347565b915061173a826116f9565b602082019050919050565b6000602082019050818103600083015261175e81611722565b9050919050565b7f416c726561647920726567697374657265642e00000000000000000000000000600082015250565b600061179b601383611347565b91506117a682611765565b602082019050919050565b600060208201905081810360008301526117ca8161178e565b9050919050565b7f496e76616c6964207374616b696e67206475726174696f6e2e2043686f6f736560008201527f20333020646179732c20363020646179732c206f7220393020646179732e0000602082015250565b600061182d603e83611347565b9150611838826117d1565b604082019050919050565b6000602082019050818103600083015261185c81611820565b905091905056fea26469706673582212207fac8a9fa63c7b6f56bc7bc0f08ddf7406f311df937cd4e4c64d584bb049078564736f6c63430008180033",
  "linkReferences": {},
  "deployedLinkReferences": {}
}